:10000000A5EF01F00000000000EF00F0000000008C
:0A0010000000000000000000F3D71C
:06001C00000000001200CC
:100022000F0E0C6E470E0D6E0D2EFED70C2EFCD74A
:06003200000000001200B6
:0A003800210E0D6E0D2EFED71200F2
:1000420044BE02D0839E01D0838E44BC02D0839CE6
:1000520001D0838C44BA02D0839A01D0838A44B8F7
:1000620002D0839801D0838831B002D0848401D039
:1000720084948482D2DF849244B602D0839E01D0DB
:10008200838E44B402D0839C01D0838C44B202D0CC
:10009200839A01D0838A44B002D0839801D08388A6
:1000A20031B002D0848401D084948482B6DF8492F9
:0C00B20031A002D0B5DF01D0BEDF12008B
:1000BE00086A096A100E0C6E0134083609360450AF
:1000CE00085E0550D8A0053C095ED8B007D0045094
:1000DE0008260550D8B0053C0926D89000360136C2
:0600EE000C2EEAD71200FF
:0C00F4000E0E0D6E0D2EFED70000120047
:0C010000319043C044F09DDF31801200BC
:10010C00C26A261C006E0050C116070EC012C08EAB
:10011C003CC000F000360090003600900050C21237
:10012C00C280E2DFC282C2A201D0FDD7C4CF01F0EF
:0E013C00006AC3500012000E0112C2901200A1
:10014A000900F5CFE6FF0006FBE10106F9E112001E
:10015A00969296949598959A959C959E8492849455
:10016A00839E839C839A839857DF56DF55DF838A61
:10017A00838884824EDF84924FDF84824ADF8492AE
:10018A004BDF848246DF849247DF8398848241DF93
:10019A00849242DF84823DDF8492839A838E8482B2
:1001AA0038DF849239DF839E8388848232DF8492A7
:1001BA00839884822EDF84922FDF84822ADF8492BE
:1001CA008388848226DF849227DF8398848221DFD2
:1001DA008492838E838C838A838884821ADF8492B2
:0601EA001BDF3180120052
:1001F0000FD0800E3C6E19D0C00E3C6E16D0940EFF
:100200003C6E13D0D40E3C6E10D0800E3C6E0DD0E0
:100210003C50010AEEE03C50020AEEE03C50030A7A
:10022000EEE03C50040AEEE0F0D73D04006E3C5096
:10023000002600C03CF000C044F003DF3190406A6B
:1002400040503E24E96E000E3F20EA6EEE520BE075
:1002500040503E24E96E000E3F20EA6EEECF43F0A0
:0A0260004FDF402AEDD73180120075
:10026A00406A050E405C0AE240503E24E16E000EF0
:10027A003F20E26E200EE66E402AF3D740503E241D
:10028A00E16E000E3F20E26EE66A400640503E24D0
:10029A00416E000E3F20426E0A0E046E000E056E7D
:1002AA003CC000F03DC001F005DF08C000F009C005
:1002BA0001F0300E002641C0E1FF42C0E2FF00C05B
:1002CA00E6FF0A0E046E000E056E3CC000F03DC04B
:1002DA0001F0F0DE00C03CF001C03DF0000E011854
:1002EA0002E1000E001801E102D04006CFD7120049
:1002FA000B6A0A6A096A00500402F4CF09F0F3CFC4
:10030A0008F001500502F4CF0BF0F3CF0AF00050C9
:10031A000502F3500926F4500A22E86A0B2201501A
:10032A000402F3500926F4500A22E86A0B2208C094
:10033A0000F009C001F00AC002F00BC003F012007D
:10034A000FEC02F0030E3A6E000E3B6E0C0EC16EFD
:10035A00FFDE010E3C6ED5DE640E046E000E056EE5
:10036A00C7DFFF0E046E030E056EA4DE00C032F076
:10037A0001C033F000C03CF001C03DF0340E3E6EC7
:10038A00000E3F6E6DDF010E3C6E010E3D6E200EBB
:10039A003E6E000E3F6E27DF010E3C6E060E3D6E6E
:1003AA00340E3E6E000E3F6E1EDF010E3C6E0B0ECB
:1003BA003D6E1E0E3E6E000E3F6E15DF800E331828
:1003CA00006E800E3B18005C02E13A50325C12E289
:1003DA00020E3C6E010E3D6E150E3E6E000E3F6E15
:1003EA0002DF030E3C6E010E3D6E270E3E6E000EBE
:0803FA003F6EF9DEAED7FFD71C
:10041E0010EE15F01C0E006E010E016E020EF66E41
:0E042E00040EF76E000EF86EA5EC00F0120042
:090402004150524F5641444F0095
:02040B002500CA
:06040D00504F543A20009C
:0104130030B8
:0A041400526570726F7661646F002C
:020000040030CA
:0E000000000C1F1EFF8381FF0FC00FE00F409A
:00000001FF
