:1000000050EF00F00000000000EF00F000000000E2
:0A0010000000000000000000F3D71C
:10001C00020E0C6E490E0D6E0D2EFED70C2EFCD75B
:06002C00000000001200BC
:100032001B6A17C001F0010E006E015004E0003689
:100042000090FF0FFBD700C01AF015C0E9FF16C0E1
:10005200EAFF0050EE14016E0152010ED8A4000E08
:10006200006E1950001A18E01850000804E2D5DF9B
:10007200D4DF1806F9D715C0E9FF16C0EAFF1A50F7
:10008200EE14016E0152010ED8A4000E006E19503A
:0E009200001A02E0FF0E1B6E1BC000F01200F1
:1000A000200E936E946A810E156E0F0E166E050E5D
:1000B000176E010E186E196ABCDF0050FF0AD8B423
:0600C0008282F1D7FFD798
:020000040030CA
:0E000000000C1F1EFF8381FF0FC00FE00F409A
:00000001FF
