:1000000016EF00F00000000000EF00F0000000001C
:0A0010000000000000000000F3D71C
:04001C00836A1200E1
:060020000F0E836E1200BA
:06002600FF0E836E1200C4
:10002C00956AFBDF150E0B6E4B0E0C6EBE0E0D6E35
:10003C000D2EFED70C2EFCD70B2EFAD70000E8DFC6
:10004C001F0E0B6E710E0C6E1E0E0D6E0D2EFED74E
:10005C000C2EFCD70B2EFAD70000DCDF290E0B6E12
:10006C00960E0C6E7F0E0D6E0D2EFED70C2EFCD741
:08007C000B2EFAD7CDDFFFD7F0
:020000040030CA
:0E000000000C1F1EFF8381FF0FC00FE00F409A
:00000001FF
