:1000000073EF06F00000000000EF00F000000000B9
:0A0010000000000000000000F3D71C
:0A001C00210E0D6E0D2EFED712000E
:0E002600026A016A006A086A036A000E12008C
:080034000AAE029E000E12004C
:10003C000B840BAE29EF00F0010E036E026A016A0D
:0A004C00006A0A360232FF0E1200AD
:0600560000000000120092
:10005C000F0E0C6E470E0D6E0D2EFED70C2EFCD710
:06006C000000000012007C
:100072000B820BAE43EF00F0036802680168006870
:080082000A360232FF0E1200E3
:08008A000B6A0B86FF0E120049
:10009200000176BF02D0839E01D0838E76BD02D04E
:1000A200839C01D0838C76BB02D0839A01D0838A51
:1000B20076B902D0839801D0838864B102D0848457
:1000C20001D084948482C6DF849276B702D0839E64
:1000D20001D0838E76B502D0839C01D0838C76B317
:1000E20002D0839A01D0838A76B102D0839801D05C
:1000F200838864B102D0848401D084948482AADF8C
:0E010200849264A102D0A9DF01D087DF120031
:0C0110000E0E0D6E0D2EFED7000012002A
:10011C000C6A0E6A0250D8A4A7EF00F001C002F0DE
:10012C0000C001F0006A0E860250D8A4A7EF00F0C0
:10013C0001C002F0016A0E960E880250D8B4B9EFD5
:10014C0000F00E50035ED8A4D8A0BEEF00F0D890FB
:10015C0002BEC3EF00F0003601360236032EAEEFBE
:10016C0000F0BEEF00F0010E0C6E57DFC6EF00F092
:10017C00020E0C6E5DDFC6EF00F0040E0C6E54DF49
:02018C0012005F
:10018E000B800BAED3EF00F0026A0AAEFF0E026ECA
:0C019E00016E006E0A360232FF0E1200E5
:1001AA00020E0C6E490E0D6E0D2EFED70C2EFCD7CC
:0601BA000000000012002D
:1001C0000B6A0A6A096A00500402F4CF09F0F3CFFF
:1001D00008F001500502F4CF0BF0F3CF0AF0005005
:1001E0000502F3500926F4500A22E86A0B22015056
:1001F0000402F3500926F4500A22E86A0B2208C0D0
:1002000000F009C001F00AC002F00BC003F01200B8
:100210000B6A0C6A0A6A0350D8B43DEF01F00A9EDB
:10022000028E860E035E03BE1BEF01F0D8B41BEFF7
:1002300001F040EF01F0036C080E035CD8A029EF39
:1002400001F0036E0236026A0350D8A4D89032EF50
:1002500001F00350D8B432EF01F0D8900232032EEF
:100260002DEF01F00BBC02A03DEF01F0D8A03DEF57
:1002700001F0022AD8B447EF01F0016A4CEF01F017
:100280000B800BAE50EF01F0016A50EF01F0010E50
:100290000C6E7DDF52EF01F0000E0C6E52EF01F09C
:0A02A000FF0E0C6E0250006E1200FB
:1002AA000001756B71C001F0010E006E015004E08F
:1002BA0000360090FF0FFBD700C074F06FC0E9FF53
:1002CA0070C0EAFF0050EE14016E0152010ED8A46C
:1002DA00000E006E7351001A18E07251000804E211
:1002EA005FDF5EDF7207F9D76FC0E9FF70C0EAFF10
:1002FA007451EE14016E0152010ED8A4000E006E64
:10030A007351001A02E0FF0E756F75C000F01200FB
:10031A0000C008F00150006E016A026A036A0B6AA3
:10032A000C6A016A026A036A960E036E0A6A00AED2
:10033A00A5EF01F0081E001E082AD8B4002A0A8E6A
:10034A0000C001F008C000F0086A026AE2DE12008A
:10035A000450000A12E10550000A0FE10650000A93
:10036A000CE10750000A09E1FF0E006EFF0E016E54
:10037A007F0E026EFF0E036EA4D0086A096A075048
:10038A00D8B458EF02F00350D8B45CEF02F0025030
:10039A0006180A6E028E068E0E6A02C008F001C0A6
:1003AA000CF000C00DF004500D5E0550D8A0053CBD
:1003BA000C5E0650D8A0063C085E086A0C6A0D6AF4
:1003CA00D8A0EFEF01F0D8900232013200320832A1
:1003DA00010E0E6E0750035ED8A0FCEF01F07E0EF0
:1003EA000E240326D8B060EF02F002EF02F07E0E70
:1003FA000E240326D8A064EF02F0180E0B6E0D36F9
:10040A000C3608360036013602360E360450005EC7
:10041A000550D8A0053C015E0650D8A0063C025EF5
:10042A0006340E120EA01DEF02F00D8028EF02F026
:10043A00045000260550D8B0053C01260650D8B015
:10044A00062802260D900B2E04EF02F04EEF02F062
:10045A00D8900036013602360E360450005E05503A
:10046A00D8A0053C015E0650D8A0063C025E0634C0
:10047A000E10010B0D26D8B00C2AD8B4082AD8A41D
:10048A004EEF02F008320C320D32032AD8B460EF74
:10049A0002F00AAE089E0850026E0C50016E0D5012
:1004AA00006E66EF02F0010EEBDD66EF02F0020E5F
:1004BA00B5DD66EF02F0040ED7DD66EF02F0080E36
:0404CA00B8DD120087
:1004CE000B6A0350D8B4ADEF02F002500A6E028EE2
:1004DE008E0E035E03AEB1EF02F0036C080E035CEA
:1004EE00D8A08CEF02F0036E013602C001F0026A52
:1004FE00080E035CD8A08CEF02F0036E0136016A81
:10050E000350D8A4D89096EF02F00350D8B496EFCB
:10051E0002F0D89002320132032E90EF02F00BBCA3
:10052E0001A0A3EF02F0D8A0A3EF02F0012AD8B4E5
:10053E00022A02BEC0EF02F00AAEC5EF02F0021EA2
:10054E00011E012AD8B4022AC5EF02F0026A016A1E
:10055E00C5EF02F00B800BAEC9EF02F0026A0AAED5
:10056E00C9EF02F0FF0E026E016E0A360232C9EFBB
:10057E0002F0010E0C6E04DECBEF02F0000E0C6EDC
:10058E00CBEF02F0FF0E0C6E0150006E0250016EAA
:02059E00120049
:0805A000BE6ABD98BD9A12006D
:1005A800C26A581C006E0050C116070EC012C08ED9
:1005B8006FC000F000360090003600900050C21264
:1005C800C280A2DDC282C2A201D0FDD7C4CF01F091
:0E05D800006AC3500012000E0112C290120001
:0A05E6001E0E006E000E016E1200E2
:0A05F0009494CA840C0EBD12120090
:1005FA00086A096A000E0762036482EF03F0025078
:10060A0006180A6E075003267E0ED8A013EF03F0D1
:10061A00035ED8B086EF03F017EF03F0035ED8A0AD
:10062A008AEF03F0028E068E02C00EF001C00BF0B4
:10063A0000C00DF000500402F4CF0CF00150050286
:10064A00F4CF00F0F3CF08F00402F3500C26F45074
:10065A000822000E00220D500502F3500C26F45019
:10066A000822000E002202500402F3500826F45019
:10067A00002202500502016A000E0122F3500026F0
:10068A00F45001220D500602F3500826F4500022BD
:10069A00026A000E012202220B500602F3500026C3
:1006AA00F4500122000E02220E500602F3500126D7
:1006BA00F450022202BE6AEF03F008360036013611
:1006CA0002360306D8B48AEF03F07DEF03F0D88030
:1006DA00800E08640030000E002201220222D8A0F7
:1006EA007DEF03F0023201320032034A86EF03F053
:1006FA000AAE029E000E8CEF03F0010E8FDC8CEF27
:10070A0003F0020EB1DC8CEF03F0040E92DC12004F
:10071A00CB50010F006E016A000E01226FC004F077
:10072A00000E056E48DD060E026E00C004F001C020
:10073A0005F0025005E005320432059EFF0FFAD794
:10074A00040E016E04C000F0015004E0003600906F
:10075A00FF0FFBD7300E0014036E04C000F005C073
:10076A0001F001320032019E01320032019E00C0C6
:0C077A00BEFF0F0EBD160350BD12120092
:100786000050086E0150006E016A026A036A0B6A25
:100796000C6A960E036E0A6A00C001F008C000F0EB
:0807A600086A026AB8DC1200C7
:0E07AE00000164916FC076F06DDC6481120072
:1007BC0010D0800E00016A6F1AD0C00E6A6F17D06D
:1007CC00940E6A6F14D0D40E6A6F11D0800E6A6FBB
:1007DC000ED000016A51010AECE06A51020AEDE008
:1007EC006A51030AEDE06A51040AEDE0EFD76B059C
:1007FC00006E6A51002600C06AF0648100C076F079
:0E080C0042DC64916CC076F03EDC6481120028
:10081A0010D0800E00016A6F1AD0C00E6A6F17D00E
:10082A00940E6A6F14D0D40E6A6F11D0800E6A6F5C
:10083A000ED000016A51010AECE06A51020AEDE0A9
:10084A006A51030AEDE06A51040AEDE0EFD76B053D
:10085A00006E6A51002600C06AF000C076F014DC0F
:10086A0064916E6B6E516C25E96E000E6D21EA6E15
:10087A00EE520BE06E516C25E96E000E6D21EA6EA8
:0E088A00EECF6FF08FDF6E2BEDD76481120082
:10089800A6DE00C06CF001C06DF0956A926A3C0E4D
:1008A800806E816A090E00016A6F000E6B6F800E00
:1008B8006B19006E800E005C02E1000E6A5D22E397
:1008C8006AC000F06BC001F000360090013600509D
:1008D8006C25E96E01506D21EA6EEECF83FF0B0E99
:1008E8000B6E260E0C6E5D0E0D6E0D2EFED70C2EA9
:1008F800FCD70B2EFAD700000000010E6A5F000E2D
:080908006B5BD5D7806A120079
:100910000A6A0350D8A40A800750D8A40A820A5051
:10092000D8B4EBEF04F0030AD8B4A4EF04F00AB093
:100930009FEF04F006AEE9EF04F0E7EF04F002AE3B
:10094000E7EF04F0E9EF04F00250800B0A6E029E1C
:100950000650800B069E0A18D8B4B5EF04F00A5072
:10096000D8B4E7EF04F0E9EF04F00750035CD8B423
:10097000BFEF04F0D8A0DBEF04F0E1EF04F0065085
:10098000025CD8B4C9EF04F0D8A0DBEF04F0E1EFCB
:1009900004F00550015CD8B4D3EF04F0D8A0DBEF2D
:1009A00004F0E1EF04F00450005CD8B4EBEF04F085
:1009B000D8B0E1EF04F00A52D8B4E9EF04F0E7EF61
:1009C00004F00A52D8B4E7EF04F0E9EF04F0D8805D
:0E09D0001200D8901200D880D88412001200B5
:1009DE000E0EC16E946ACA80CA92630ECB6ED9DDBA
:1009EE0000DE00016F6BD9DDC7DE140E046EAE0E95
:1009FE00056E230E066E820E076EA8DC61DD86DCA8
:100A0E00330E046E330E056E230E066E800E076EC9
:100A1E00EDDD08EC01F000C06FF078DE810E000114
:100A2E006F6F0F0E706F010E716F010E726F736B21
:0E0A3E0035DC0050FF0A01E101D0D3D71200D1
:100A4C00969296949598959A959C959E849284945A
:100A5C00839E839C839A83982EEC00F02EEC00F0FE
:100A6C002EEC00F0838A838884822BEC00F0849235
:100A7C002EEC00F084822BEC00F084922EEC00F033
:100A8C0084822BEC00F084922EEC00F0839884820C
:100A9C002BEC00F084922EEC00F084822BEC00F016
:100AAC008492839A838E84822BEC00F084922EECB9
:100ABC0000F0839E838884822BEC00F084928398D0
:100ACC0084822BEC00F084922EEC00F084822BECD0
:100ADC0000F08492838884822BEC00F084922EECBC
:100AEC0000F0839884822BEC00F08492838E838CAC
:100AFC00838A838884822BEC00F084922EEC00F0A5
:060B0C00000164811200EB
:100B1200480E0001766F49EC00F0696B69510708D5
:100B220011E3010E6925F66E0E0EF76E000EF72226
:100B3200000EF86E000EF8220900F5CF6FF036DED7
:100B4200692BECD7020E766F49EC00F067C06AF0B1
:0C0B520068C06BF0010E6C6F30DE12000A
:100B5E000900F5CFE6FF0006FBE10106F9E1120000
:100B6E00480EC16E936A946A949069DF82B037D052
:100B7E00FF0E816E030E6A6F010E6B6F320E6C6F7D
:100B8E00000E6D6F43DE140E676F000E686F800EE1
:100B9E006819006E800E005C02E1000E675D1AE3BC
:100BAE00000E681902E1090E671901E16EDE0B0EE7
:100BBE000B6E260E0C6E5D0E0D6E0D2EFED70C2ED0
:100BCE00FCD70B2EFAD700000000010E675F000E57
:100BDE00685BDDD78280010E766F49EC00F082A053
:100BEE0021D0030E6A6F010E6B6F3A0E6C6F000E02
:100BFE006D6F0CDEF80E816E82820B0E0B6E260E62
:100C0E000C6E5D0E0D6E0D2EFED70C2EFCD70B2E20
:100C1E00FAD700000000829238DE8290010E766FC5
:100C2E0049EC00F0810E6F6F0F0E706F010E716F39
:100C3E00010E726F736B55EC01F00050FF0A01E16B
:060C4E0001D094D7120052
:100C54000C0EC16E030E936E946A828A020E00011A
:100C64006F6FA0DC00C067F001C068F0030E0001E4
:100C74006A6FFD0E6B6F4B0E6C6F000E6D6FCBDDEC
:100C8400040E6A6FFD0E6B6F590E6C6F000E6D6F64
:100C9400C2DD67C000F068C001F08DEC01F0000E09
:100CA400046E000E056E200E066E840E076E2EDE98
:100CB400000ED8B0010E006E005201E08EDE810EEF
:100CC40000016F6F0F0E706F010E716F010E726F66
:100CD400736B55EC01F00050FF0A01E101D0BDD760
:020CE4001200FC
:100CE60005EC07F00001656B666B030E936E956A63
:100CF600AADE010E766F49EC00F00C0E766F49EC19
:100D060000F0860ED56E470ED66EC30ED76EF294E1
:100D1600010E6A6F050E6B6F410E6C6F000E6D6FE4
:100D260079DD020E6A6F050E6B6F150E6C6F000E85
:100D36006D6F70DD030E676F050E686FE7DE800E60
:100D4600006E800E6619005C02E1655102080AE336
:100D5600F2A407D0470ED66EC30ED76EF294654B3B
:100D6600662BEDD7010E766F49EC00F0810E6F6FA2
:100D76000F0E706F716B010E726F736B55EC01F095
:100D86000050FF0A01E163DF810E00016F6F0F0E55
:100D9600706F010E716F010E726F736B55EC01F07F
:0C0DA6000050FF0A01E1E0DEE1D7FFD7BA
:100E0A0010EE15F04F0E006E010E016EB20EF66E68
:0E0E1A000D0EF76E000EF86EAFEC05F0120034
:090DB200612042616D6275690067
:100DBB003F0006005B004F0066006D007D000700E2
:040DCB007F006F0036
:080DCF004665636861646F0072
:070DD70041626572746F00B8
:0A0DDE0042656D2D76696E646F00AA
:0D0DE8005072657373696F6E6520423100B3
:010DF50030CD
:0B0DF60050617261207361697221007E
:080E01001B1F0E04000000009D
:020000040030CA
:0E000000000C1F1EFF8181FF0FC00FE00F409C
:00000001FF
