:1000000050EF00F00000000000EF00F000000000E2
:0A0010000000000000000000F3D71C
:10001C00020E0C6E490E0D6E0D2EFED70C2EFCD75B
:06002C00000000001200BC
:100032001D6A19C001F0010E006E015004E0003685
:100042000090FF0FFBD700C01CF017C0E9FF18C0DB
:10005200EAFF0050EE14016E0152010ED8A4000E08
:10006200006E1B50001A18E01A50000804E2D5DF97
:10007200D4DF1A06F9D717C0E9FF18C0EAFF1C50EF
:10008200EE14016E0152010ED8A4000E006E1B5038
:0E009200001A02E0FF0E1D6E1DC000F01200ED
:1000A000156A166A956A926A200E936E810E176E13
:1000B0000F0E186E050E196E010E1A6E1B6AB9DF4F
:1000C0000050FF0A25E1154A162A000E161802E113
:1000D000010E151805E1040E806E3F0E836E0AD0E6
:1000E000000E161802E1020E151804E10C0E806EC7
:1000F0003F0E836E0B0E0B6E260E0C6E5D0E0D6E9C
:100100000D2EFED70C2EFCD70B2EFAD700000000C8
:04011000CDD7FFD771
:020000040030CA
:0E000000000C1F1EFF8381FF0FC00FE00F409A
:00000001FF
