:10000000E4EF01F00000000000EF00F0000000004D
:0A0010000000000000000000F3D71C
:06001C00000000001200CC
:100022000F0E0C6E470E0D6E0D2EFED70C2EFCD74A
:06003200000000001200B6
:0A003800210E0D6E0D2EFED71200F2
:1000420035BE02D0839E01D0838E35BC02D0839C04
:1000520001D0838C35BA02D0839A01D0838A35B815
:1000620002D0839801D0838824B002D0848401D046
:1000720084948482D2DF849235B602D0839E01D0EA
:10008200838E35B402D0839C01D0838C35B202D0EA
:10009200839A01D0838A35B002D0839801D08388B5
:1000A20024B002D0848401D084948482B6DF849206
:0C00B20024A002D0B5DF01D0BEDF120098
:1000BE000B6A0A6A096A00500402F4CF09F0F3CF02
:1000CE0008F001500502F4CF0BF0F3CF0AF0005008
:1000DE000502F3500926F4500A22E86A0B22015059
:1000EE000402F3500926F4500A22E86A0B2208C0D3
:1000FE0000F009C001F00AC002F00BC003F01200BC
:0C010E000E0E0D6E0D2EFED7000012002C
:10011A00086A096A100E0C6E013408360936045052
:10012A00085E0550D8A0053C095ED8B007D0045037
:10013A0008260550D8B0053C0926D8900036013665
:06014A000C2EEAD71200A2
:0C015000249034C035F075DF24801200CC
:10015C00316A050E315C0AE231502F24E16E000E3B
:10016C003020E26E200EE66E312AF3D731502F2468
:10017C00E16E000E3020E26EE66A310631502F241B
:10018C00326E000E3020336E0A0E046E000E056EB9
:10019C002DC000F02EC001F0BADF08C000F009C07D
:1001AC0001F0300E002632C0E1FF33C0E2FF00C088
:1001BC00E6FF0A0E046E000E056E2DC000F02EC078
:1001CC0001F0A5DF00C02DF001C02EF0000E0118CB
:1001DC0002E1000E001801E102D03106CFD7120067
:0A01EC009494CA840C0EBD12120098
:1001F600969296949598959A959C959E84928494B9
:10020600839E839C839A839809DF08DF07DF838AAE
:100216008388848200DF849201DF8482FCDE8492FC
:10022600FDDE8482F8DE8492F9DE83988482F3DE32
:100236008492F4DE8482EFDE8492839A838E8482B3
:10024600EADE8492EBDE839E83888482E4DE8492F7
:1002560083988482E0DE8492E1DE8482DCDE84920E
:1002660083888482D8DE8492D9DE83988482D3DE22
:100276008492838E838C838A83888482CCDE849264
:06028600CDDE2480120011
:10028C000900F5CFE6FF0006FBE10106F9E11200DB
:08029C00BE6ABD98BD9A120074
:1002A4000FD0800E2D6E19D0C00E2D6E16D0940E68
:1002B4002D6E13D0D40E2D6E10D0800E2D6E0DD059
:1002C4002D50010AEEE02D50020AEEE02D50030AF3
:1002D400EEE02D50040AEEE0F0D72E04006E2D500F
:1002E400002600C02DF000C035F0A9DE2490316A4C
:1002F40031502F24E96E000E3020EA6EEE520BE0EE
:1003040031502F24E96E000E3020EA6EEECF34F027
:0A0314001DDF312AEDD7248012000E
:10031E00CB50010F006E016A000E01222DC004F0B9
:10032E00000E056EC5DE060E026E00C004F001C0A2
:10033E0005F0025005E005320432059EFF0FFAD794
:10034E00040E016E04C000F0015004E0003600906F
:10035E00FF0FFBD7300E0014036E04C000F005C073
:10036E0001F001320032019E01320032019E00C0C6
:0C037E00BEFF0F0EBD160350BD12120092
:10038A00C26A231C006E0050C116070EC012C08E2E
:10039A002DC000F000360090003600900050C212C6
:1003AA00C280B0DEC282C2A201D0FDD7C4CF01F0A2
:0E03BA00006AC3500012000E0112C290120021
:1003C8001DEC02F00E0EC16E12DFCA80CA92630ED7
:1003D800CB6E60DF07DF2D6AD4DF00C025F001C0D7
:1003E80026F000C02DF097DF25C02DF026C02EF096
:1003F800270E2F6E000E306EADDE010E2D6E010E33
:100408002E6E150E2F6E000E306E48DF020E2D6E0A
:10041800010E2E6E270E2F6E000E306E3FDFDBD7DB
:02042800FFD7FC
:10043A0010EE15F00F0E006E010E016E2A0EF66E0A
:0E044A00040EF76E000EF86E46EC01F0120084
:0E042A00506F74EA6E63696F6D6574726F00D7
:010438003093
:020000040030CA
:0E000000000C1F1EFF8381FF0FC00FE00F409A
:00000001FF
