:1000000050EF00F00000000000EF00F000000000E2
:0A0010000000000000000000F3D71C
:10001C00020E0C6E490E0D6E0D2EFED70C2EFCD75B
:06002C00000000001200BC
:100032001E6A1AC001F0010E006E015004E0003683
:100042000090FF0FFBD700C01DF018C0E9FF19C0D8
:10005200EAFF0050EE14016E0152010ED8A4000E08
:10006200006E1C50001A18E01B50000804E2D5DF95
:10007200D4DF1B06F9D718C0E9FF19C0EAFF1D50EB
:10008200EE14016E0152010ED8A4000E006E1C5037
:0E009200001A02E0FF0E1E6E1EC000F01200EB
:1000A000156A166A176A956A200E936E836A810E26
:1000B000186E0F0E196E050E1A6E010E1B6E1C6A5D
:1000C000B8DF0050FF0A2DE1154A162A800E006E97
:1000D000800E1618005C02E11550080804E2080EB4
:1000E000156E000E166E1504006E00C001F0010EB4
:1000F000006E015004E000360090FF0FFBD7175050
:10010000001200C017F000C083FF030E0B6E080E34
:100110000C6E770E0D6E0D2EFED70C2EFCD70B2E0F
:06012000FAD7C5D7FFD796
:020000040030CA
:0E000000000C1F1EFF8381FF0FC00FE00F409A
:00000001FF
