:100000007DEF01F00000000000EF00F000000000B4
:0A0010000000000000000000F3D71C
:06001C00000000001200CC
:100022000F0E0C6E470E0D6E0D2EFED70C2EFCD74A
:06003200000000001200B6
:0A003800210E0D6E0D2EFED71200F2
:100042002EBE02D0839E01D0838E2EBC02D0839C12
:1000520001D0838C2EBA02D0839A01D0838A2EB823
:1000620002D0839801D083881FB002D0848401D04B
:1000720084948482D2DF84922EB602D0839E01D0F1
:10008200838E2EB402D0839C01D0838C2EB202D0F8
:10009200839A01D0838A2EB002D0839801D08388BC
:1000A2001FB002D0848401D084948482B6DF84920B
:0C00B2001FA002D0B5DF01D0BEDF12009D
:0C00BE000E0E0D6E0D2EFED7000012007D
:0C00CA001F902DC02EF0B8DF1F80120028
:1000D600086A096A100E0C6E013408360936045097
:1000E600085E0550D8A0053C095ED8B007D004507C
:1000F60008260550D8B0053C0926D89000360136AA
:060106000C2EEAD71200E6
:10010C00969296949598959A959C959E84928494A3
:10011C00839E839C839A83987EDF7DDF7CDF838A3A
:10012C008388848275DF849276DF848271DF849287
:10013C0072DF84826DDF84926EDF8398848268DF45
:10014C00849269DF848264DF8492839A838E8482B2
:10015C005FDF849260DF839E8388848259DF849280
:10016C008398848255DF849256DF848251DF849297
:10017C00838884824DDF84924EDF8398848248DFAB
:10018C008492838E838C838A8388848241DF8492D9
:06019C0042DF1F8012008B
:1001A2000900F5CFE6FF0006FBE10106F9E11200C6
:1001B200C26A1E1C006E0050C116070EC012C08E0D
:1001C20026C000F000360090003600900050C212A7
:1001D200C28074DFC282C2A201D0FDD7C4CF01F0B7
:0E01E200006AC3500012000E0112C2901200FB
:1001F0000FD0800E266E19D0C00E266E16D0940E2B
:10020000266E13D0D40E266E10D0800E266E0DD022
:100210002650010AEEE02650020AEEE02650030ABC
:10022000EEE02650040AEEE0F0D72704006E2650D8
:10023000002600C026F000C02EF003DF1F902A6ABF
:100240002A502824E96E000E2920EA6EEE520BE0B7
:100250002A502824E96E000E2920EA6EEECF2DF0F8
:0A02600034DF2A2AEDD71F801200B8
:10026A002A6A050E2A5C0AE22A502824E16E000E48
:10027A002920E26E200EE66E2A2AF3D72A50282475
:10028A00E16E000E2920E26EE66A2A062A50282428
:10029A002B6E000E29202C6E0A0E046E000E056EBF
:1002AA0026C000F027C001F011DF08C000F009C025
:1002BA0001F0300E00262BC0E1FF2CC0E2FF00C087
:1002CA00E6FF0A0E046E000E056E26C000F027C077
:1002DA0001F0FCDE00C026F001C027F0000E011874
:1002EA0002E1000E001801E102D02A06CFD712005F
:1002FA00AAEC01F00C0EC16E04DF020E266E54DF6A
:10030A0000C026F001C027F027322632279E200E91
:10031A00286E000E296EA4DF010E266E010E276ECE
:10032A00150E286E000E296E5EDF010E266E080E6F
:10033A00276E200E286E000E296E55DFDED7FFD7F6
:1003540010EE15F00A0E006E010E016E4A0EF66ED6
:0E036400030EF76E000EF86ED1EC00F01200E2
:09034A0053656E736F72203A00D6
:010353003079
:020000040030CA
:0E000000000C1F1EFF8381FF0FC00FE00F409A
:00000001FF
