:100000000EEF00F00000000000EF00F00000000024
:0A0010000000000000000000F3D71C
:10001C00956A936A836A816A026A036A800E03187E
:10002C00006E800E005C02E1080E025C2BE202C046
:10003C0001F0010E006E015004E000360090FF0F3D
:10004C00FBD70050831202500708006E00C001F06D
:10005C00010E006E015004E000360090FF0FFBD73C
:10006C0000508112020E0B6E040E0C6EBA0E0D6E49
:10007C000D2EFED70C2EFCD70B2EFAD70000024A01
:08008C00032ACCD7C9D7FFD726
:020000040030CA
:0E000000000C1F1EFF8381FF0FC00FE00F409A
:00000001FF
