:100000002AEF01F00000000000EF00F00000000007
:0A0010000000000000000000F3D71C
:0A001C00210E0D6E0D2EFED712000E
:100026000F0E0C6E470E0D6E0D2EFED70C2EFCD746
:06003600000000001200B2
:06003C00000000001200AC
:100042001CBE02D0839E01D0838E1CBC02D0839C36
:1000520001D0838C1CBA02D0839A01D0838A1CB847
:1000620002D0839801D0838815B002D0848401D055
:1000720084948482E2DF84921CB602D0839E01D0F3
:10008200838E1CB402D0839C01D0838C1CB202D01C
:10009200839A01D0838A1CB002D0839801D08388CE
:1000A20015B002D0848401D084948482C6DF849205
:0C00B20015A002D0B7DF01D0B0DF1200B3
:1000BE000FD0800E196E19D0C00E196E16D0940E78
:1000CE00196E13D0D40E196E10D0800E196E0DD07D
:1000DE001950010AEEE01950020AEEE01950030A17
:1000EE00EEE01950040AEEE0F0D71A04006E195033
:1000FE00002600C019F0158000C01CF09BDF159083
:0A010E001BC01CF097DF15801200E3
:0C011800159019C01CF091DF158012003A
:10012400400E1C6E8CDF186A1850070811E3740E19
:100134001824F66E020EF76E000EF722000EF86E0B
:10014400000EF8220900F5CF19F0E4DF182AECD7E5
:10015400020E1C6E74DF16C019F017C01AF01B6A69
:04016400ACDF1200FA
:10016800969296949598959A959C959E8492849447
:10017800839E839C839A839852DF51DF50DF838A62
:100188008388848257DF84924ADF848253DF849293
:1001980046DF84824FDF849242DF839884824ADF7D
:1001A80084923DDF848246DF8492839A838E8482A0
:1001B80041DF849234DF839E838884823BDF84928C
:1001C8008398848237DF84922ADF848233DF8492A3
:1001D800838884822FDF849222DF839884822ADFB7
:1001E8008492838E838C838A8388848223DF84929B
:0601F80016DF1580120065
:1001FE000900F5CFE6FF0006FBE10106F9E112006A
:10020E00480E1C6E17DF186A1850070811E36C0EA3
:10021E001824F66E020EF76E000EF722000EF86E20
:10022E00000EF8220900F5CF19F06FDF182AECD76F
:10023E00020E1C6EFFDE16C019F017C01AF0010E6A
:06024E001B6E36DF1200FA
:1002540089DF010E166E010E176E62DF020E166E36
:08026400010E176ED2DFFFD777
:08026C00000A15110A0400004C
:0802740004041F040404040447
:020000040030CA
:0E000000000C1F1EFF8381FF0FC00FE00F409A
:00000001FF
