:10000000BFEF00F00000000000EF00F00000000073
:0A0010000000000000000000F3D71C
:10001C000B6A0A6A096A00500402F4CF09F0F3CFA4
:10002C0008F001500502F4CF0BF0F3CF0AF00050AA
:10003C000502F3500926F4500A22E86A0B220150FB
:10004C000402F3500926F4500A22E86A0B2208C075
:10005C0000F009C001F00AC002F00BC003F012005E
:10006C00020E0C6E490E0D6E0D2EFED70C2EFCD70B
:06007C000000000012006C
:10008200CB50010F006E016A000E012215C004F070
:10009200000E056EC2DF060E026E00C004F001C043
:1000A20005F0025005E005320432059EFF0FFAD733
:1000B200040E016E04C000F0015004E0003600900E
:1000C200FF0FFBD7300E0014036E04C000F005C012
:1000D20001F001320032019E01320032019E00C065
:0C00E200BEFF0F0EBD160350BD12120031
:1000EE000900F5CFE6FF0006FBE10106F9E112007B
:0800FE00BE6ABD98BD9A120014
:0A0106009494CA840C0EBD1212007E
:100110001B6A17C001F0010E006E015004E00036AA
:100120000090FF0FFBD700C01AF015C0E9FF16C002
:10013000EAFF0050EE14016E0152010ED8A4000E29
:10014000006E1950001A18E01850000804E28EDF03
:100150008DDF1806F9D715C0E9FF16C0EAFF1A505F
:10016000EE14016E0152010ED8A4000E006E19505B
:0E017000001A02E0FF0E1B6E1BC000F0120012
:10017E000F0E936E946ACA80CA92630ECB6EB8DF6E
:10018E00BBDF810E156E0F0E166E176A010E186EFE
:10019E00196AB7DF0050FF0A04E13F0E156E6ADFE1
:1001AE0032D0810E156E0F0E166E010E176E010EE9
:1001BE00186E196AA6DF0050FF0A04E17F0E156E55
:1001CE0059DF21D0810E156E0F0E166E020E176EB0
:1001DE00010E186E196A95DF0050FF0A04E1BF0E7A
:1001EE00156E48DF10D0810E156E0F0E166E030EB3
:1001FE00176E010E186E196A84DF0050FF0A03E1B4
:0A020E00FF0E156E37DFBDD7FFD7D6
:020000040030CA
:0E000000000C1F1EFF8181FF0FC00FE00F409C
:00000001FF
