:10000000D6EF05F00000000000EF00F00000000057
:0A0010000000000000000000F3D71C
:06001C00000000001200CC
:100022000F0E0C6E470E0D6E0D2EFED70C2EFCD74A
:06003200000000001200B6
:0A003800210E0D6E0D2EFED71200F2
:0E004200026A016A006A086A036A000E120070
:100050000B820BAE32EF00F00368026801680068A3
:080060000A360232FF0E120005
:080068000AAE029E000E120018
:10007000000172BF02D0839E01D0838E72BD02D078
:10008000839C01D0838C72BB02D0839A01D0838A77
:1000900072B902D0839801D0838849B002D0848499
:1000A00001D084948482BADF849272B702D0839E96
:1000B00001D0838E72B502D0839C01D0838C72B341
:1000C00002D0839A01D0838A72B102D0839801D082
:1000D000838849B002D0848401D0849484829EDFD6
:0E00E000849249A002D09DDF01D0A6DF12005D
:1000EE000B840BAE82EF00F0010E036E026A016A02
:0A00FE00006A0A360232FF0E1200FB
:100108006EC004F06FC005F004C002F005C003F033
:10011800044A052A70C000F071C001F00001704B5C
:10012800712B00C0E9FF01C0EAFF02C0E1FF03C074
:10013800E2FFEECFE6FF02C0E9FF03C0EAFFEE529E
:0E01480001E0E2D76EC000F06FC001F01200BF
:100156000A6A0350D8A40A800750D8A40A820A5013
:10016600D8B40EEF01F0030AD8B4C7EF00F00AB016
:10017600C2EF00F006AE0CEF01F00AEF01F002AE9E
:100186000AEF01F00CEF01F00250800B0A6E029E9E
:100196000650800B069E0A18D8B4D8EF00F00A5015
:1001A600D8B40AEF01F00CEF01F00750035CD8B4A5
:1001B600E2EF00F0D8A0FEEF00F004EF01F00650E9
:1001C600025CD8B4ECEF00F0D8A0FEEF00F004EF2C
:1001D60001F00550015CD8B4F6EF00F0D8A0FEEFB0
:1001E60000F004EF01F00450005CD8B40EEF01F00B
:1001F600D8B004EF01F00A52D8B40CEF01F00AEFC0
:1002060001F00A52D8B40AEF01F00CEF01F0D880E1
:0E0216001200D8901200D880D8841200120076
:0C02240049906EC072F022DF4980120089
:100230000D6A086A0050D8B4000C04180A6E0ABE91
:100240000D1E0B6A04AE02D0041E042A00AE02D0BA
:10025000001E002A005004100A6E0ABE1FD004506F
:10026000085E003600340836045008260036060EB4
:100270000C6E00340836045000B0085E00A008265A
:1002800000360C2EF6D700A008260BB015D00DAE08
:10029000000C001E002A081E082A000C04AE09D01B
:1002A00000BE04D00050086E006AF1D7006A002A30
:1002B000000C001E0B2AD3D7082A0450085CD8A4CF
:0E02C000E6D7086A002A00AEE2D7FF0C120053
:1002CE00086A096A000E07620364ECEF01F002503F
:1002DE0006180A6E075003267E0ED8A07DEF01F099
:1002EE00035ED8B0F0EF01F081EF01F0035ED8A00D
:1002FE00F4EF01F0028E068E02C00EF001C00BF07C
:10030E0000C00DF000500402F4CF0CF001500502B5
:10031E00F4CF00F0F3CF08F00402F3500C26F450A3
:10032E000822000E00220D500502F3500C26F45048
:10033E000822000E002202500402F3500826F45048
:10034E00002202500502016A000E0122F35000261F
:10035E00F45001220D500602F3500826F4500022EC
:10036E00026A000E012202220B500602F3500026F2
:10037E00F4500122000E02220E500602F350012606
:10038E00F450022202BED4EF01F0083600360136D8
:10039E0002360306D8B4F4EF01F0E7EF01F0D8808F
:1003AE00800E08640030000E002201220222D8A026
:1003BE00E7EF01F0023201320032034AF0EF01F0B2
:1003CE000AAE029E000EF6EF01F0010E33DEF6EFDE
:1003DE0001F0020E36DEF6EF01F0040E81DE1200A1
:1003EE000C6A0E6A0250D8A410EF02F001C002F09F
:1003FE0000C001F0006A0E860250D8A410EF02F081
:10040E0001C002F0016A0E960E880250D8B422EF97
:10041E0002F00E50035ED8A4D8A027EF02F0D890B9
:10042E0002BE2CEF02F0003601360236032E17EF15
:10043E0002F027EF02F0010E0C6EFCDD2FEF02F042
:10044E00020E0C6E4DDE2FEF02F0040E0C6E05DE6A
:02045E0012008A
:0C0460000E0E0D6E0D2EFED700001200D7
:08046C000B6A0B86FF0E120063
:100474000900F5CFE6FF0006FBE10106F9E11200F1
:10048400C26A441C006E0050C116070EC012C08E12
:1004940060C000F000360090003600900050C21298
:1004A400C280DCDFC282C2A201D0FDD7C4CF01F07A
:0E04B400006AC3500012000E0112C290120026
:1004C200969296949598959A959C959E84928494EA
:1004D200839E839C839A8398A3DDA2DDA1DD838A18
:1004E200838884829ADD84929BDD848296DD849265
:1004F20097DD848292DD849293DD839884828DDD00
:1005020084928EDD848289DD8492839A838E8482B2
:1005120084DD849285DD839E838884827EDD84925D
:10052200839884827ADD84927BDD848276DD849274
:100532008388848272DD849273DD839884826DDD88
:100542008492838E838C838A8388848266DD8492FC
:0605520067DD4980120084
:100558000450000A12E10550000A0FE10650000A93
:100568000CE10750000A09E1FF0E006EFF0E016E54
:100578007F0E026EFF0E036EA4D0086A096A075048
:10058800D8B457EF03F00350D8B45BEF03F0025030
:1005980006180A6E028E068E0E6A02C008F001C0A6
:1005A8000CF000C00DF004500D5E0550D8A0053CBD
:1005B8000C5E0650D8A0063C085E086A0C6A0D6AF4
:1005C800D8A0EEEF02F0D8900232013200320832A1
:1005D800010E0E6E0750035ED8A0FBEF02F07E0EF0
:1005E8000E240326D8B05FEF03F001EF03F07E0E70
:1005F8000E240326D8A063EF03F0180E0B6E0D36F9
:100608000C3608360036013602360E360450005EC7
:100618000550D8A0053C015E0650D8A0063C025EF5
:1006280006340E120EA01CEF03F00D8027EF03F026
:10063800045000260550D8B0053C01260650D8B015
:10064800062802260D900B2E03EF03F04DEF03F062
:10065800D8900036013602360E360450005E05503A
:10066800D8A0053C015E0650D8A0063C025E0634C0
:100678000E10010B0D26D8B00C2AD8B4082AD8A41D
:100688004DEF03F008320C320D32032AD8B45FEF75
:1006980003F00AAE089E0850026E0C50016E0D5011
:1006A800006E65EF03F0010EDDDE65EF03F0020E6C
:1006B800C4DC65EF03F0040EC7DC65EF03F0080E39
:0406C80012DD12002D
:1006CC0000016C6B6D6B61C068F062C069F063C057
:1006DC006AF064C06BF06B51FF0A08E16A51FF0AC3
:1006EC0005E16951FF0A02E16851FF0A0CE165C09E
:1006FC006EF066C06FF03E0E706F000E716FFEDC18
:10070C00030E006EEBD1010E606F6AAF0ED0800E3F
:10071C006A19006E00C06AF0602B65C0E1FF66C00C
:10072C00E2FF2D0EE66E654B662B000E006E6B190C
:10073C0008E100506A1905E10050691902E168519D
:10074C00000A0BE165C06EF066C06FF0420E706F70
:10075C00000E716FD3DC006AC1D16B51FF0A08E146
:10076C006A51000A05E16951000A02E16851000A68
:10077C000CE165C06EF066C06FF0450E706F000E38
:10078C00716FBCDC60C000F0A9D1000E046E000ECD
:10079C00056E000E066E7F0E076E68C000F069C015
:1007AC0001F06AC002F06BC003F0CFDC010ED8B0D0
:1007BC00000E006E00521BE068C000F069C001F032
:1007CC006AC002F06BC003F0000E046E000E056EE2
:1007DC00200E066E820E076E74DD00C068F001C03C
:1007EC0069F002C06AF003C06BF06D07CED7000E43
:1007FC00046E000E056E200E066E820E076E68C02B
:10080C0000F069C001F06AC002F06BC003F09DDC1F
:10081C00000ED8B0010E006E00521BE068C000F054
:10082C0069C001F06AC002F06BC003F0CD0E046E1B
:10083C00CC0E056E4C0E066E7B0E076E42DD00C0B4
:10084C0068F001C069F002C06AF003C06BF06D2B58
:10085C00CED7FF0E6815086EFF0E6915096E7F0E58
:10086C006A150A6E000E6B150B6E08C004F009C0F9
:10087C0005F00AC006F00BC007F0043604900536EC
:10088C0006360736000E6815006E000E6915016EEF
:10089C00000E6A15026EFF0E6B15036E00C068F039
:1008AC0001C069F002C06AF003C06BF0045068111B
:1008BC00006E05506911016E06506A11026E0750E8
:1008CC006B11036E00C068F001C069F002C06AF0E1
:1008DC0003C06BF07F0E6B5D006E00C067F0010E05
:1008EC006B6F00C004F068C000F069C001F06AC012
:1008FC0002F06BC003F0045007E0003600900136A4
:10090C0002360336FF0FF8D700C068F001C069F05B
:10091C0002C06AF003C06BF065C0E1FF66C0E2FF85
:10092C006B51300FE66E654B662B800E6D19006EA9
:10093C00800E010A005C08E3800E060A006E800E31
:10094C006D19005C01E30AD065C0E1FF66C0E2FFEF
:10095C002E0EE66E654B662B010E6C6F060E676FE6
:10096C006751000A54E06B6B68C000F069C001F07D
:10097C006AC002F06BC003F00036009001360236FC
:10098C0003360036009001360236033668510026D5
:10099C00695101226A5102226B51032200C068F096
:1009AC0001C069F002C06AF003C06BF068C000F0CF
:1009BC0069C001F06AC002F06BC003F00036009011
:1009CC0001360236033600C068F001C069F002C07F
:1009DC006AF003C06BF065C0E1FF66C0E2FF6B51CB
:1009EC00300FE66E654B662B6C51000A0EE16D07FD
:1009FC006D51000A0AE165C0E1FF66C0E2FF2E0EF0
:100A0C00E66E654B662B010E6C6F6707A9D7FF0E60
:100A1C006525E96EFF0E6621EA6EEE50300A05E19F
:100A2C00010E655F000E665BF2D7FF0E6525E96E61
:100A3C00FF0E6621EA6EEE502E0A04E1010E655F90
:100A4C00000E665B6D51000A43E065C0E1FF66C0B5
:100A5C00E2FF650EE66E654B662B800E6D19006E1F
:100A6C00800E000A005C0BE265C0E1FF66C0E2FF8D
:100A7C002D0EE66E654B662B6D5100086D6F6DC0CB
:100A8C0067F0800E090A006E800E6D19005C0FE293
:100A9C000A0E046E67C000F018EC01F065C0E1FFAF
:100AAC0066C0E2FF0050300FE66E654B662B0A0EF7
:100ABC00046E67C000F018EC01F008C000F065C0CF
:100ACC00E1FF66C0E2FF0050300FE66E654B662B0F
:0E0ADC0065C0E1FF66C0E2FFE66A006A120034
:100AEA0000C008F00150006E016A026A036A0B6ACC
:100AFA000C6A016A026A036A960E036E0A6A00AEFB
:100B0A008DEF05F0081E001E082AD8B4002A0A8EA6
:100B1A0000C001F008C000F0086A026A63DC120033
:100B2A0010D0800E0001616F1AD0C00E616F17D00D
:100B3A00940E616F14D0D40E616F11D0800E616F64
:100B4A000ED000016151010AECE06151020AEDE0A8
:100B5A006151030AEDE06151040AEDE0EFD7620545
:100B6A00006E6151002600C061F000C072F038ECDE
:100B7A0000F04990606B60516325E96E000E6421B4
:100B8A00EA6EEE520CE060516325E96E000E6421B4
:100B9A00EA6EEECF6EF012EC01F0602BECD74980D2
:020BAA00120037
:100BAC00ABEC06F05E6A5F6A946A826A0C0EC16EE8
:100BBC0082DC010E0001726F38EC00F00C0E726FCB
:100BCC0038EC00F0020E606F57DC89DF000E046E0B
:100BDC00000E056E200E066E810E076E67EC01F09E
:100BEC00000E046EC00E056E7F0E066E880E076E2C
:100BFC00ADDC000E046E000E056E480E066E850E02
:100C0C00076E67EC01F000C04AF001C04BF002C067
:100C1C004CF003C04DF0000E046E000E056E200E5D
:100C2C00066E840E076EABEC00F0000ED8B0010E11
:100C3C00006E005206E0040E826E010E5E6E000E17
:100C4C005F6E4AC004F04BC005F04CC006F04DC0BE
:100C5C0007F0000E006E000E016E0C0E026E840E7C
:100C6C00036EABEC00F0000ED8B0010E006E00521B
:100C7C0003E0826A5E6A5F6A4AC061F04BC062F050
:100C8C004CC063F04DC064F04E0E0001656F000E59
:100C9C00666F16DD010E616F010E626F170E636FCA
:100CAC00000E646F3CDF010E616F060E626F4E0E1C
:100CBC00636F000E646F33DF010E616F0C0E626F99
:100CCC00150E636F000E646F2ADF5E505F100AE032
:100CDC00020E616F010E626F1D0E636F000E646F6A
:100CEC001EDF09D0020E616F010E626F2E0E636F54
:100CFC00000E646F14DF060E0B6E130E0C6EAD0E31
:100D0C000D6E0D2EFED70C2EFCD70B2EFAD7000035
:060D1C00000058D7FFD7CC
:100D560010EE15F0340E006E010E016E220EF66EC8
:0E0D66000D0EF76E000EF86E3AEC02F0120061
:020D220043008C
:060D240054656D703A00F9
:100D2A0041747561646F723A204C696761646F201F
:010D3A0000B8
:100D3B0041747561646F723A204465736C6720006F
:040D4B004E614E00A7
:020D4F00300072
:010D51003071
:040D5200494E4600C0
:020000040030CA
:0E000000000C1F1EFF8381FF0FC00FE00F409A
:00000001FF
