:1000000067EF00F00000000000EF00F000000000CB
:0A0010000000000000000000F3D71C
:10001C000F0E0C6E470E0D6E0D2EFED70C2EFCD750
:06002C00000000001200BC
:06003200000000001200B6
:10003800969296949598959A959C959E8492849478
:10004800839E839C839A8398E5DFE4DFE3DF838ADA
:1000580083888482EADF8492DDDF8482E6DF84920B
:10006800D9DF8482E2DF8492D5DF83988482DDDF62
:100078008492D0DF8482D9DF8492839A838E8482AB
:10008800D4DF8492C7DF839E83888482CEDF849204
:1000980083988482CADF8492BDDF8482C6DF84921B
:1000A80083888482C2DF8492B5DF83988482BDDF2F
:1000B8008492838E838C838A83888482B6DF849239
:0600C800A9DF1580120003
:1000CE00946A200E826EFC0EC16EAFDF240E826E1D
:0400DE00FDD7FFD774
:020000040030CA
:0E000000000C1F1EFF8381FF0FC00FE00F409A
:00000001FF
