:1000000032EF01F00000000000EF00F000000000FF
:0A0010000000000000000000F3D71C
:10001C000F0E0C6E470E0D6E0D2EFED70C2EFCD750
:06002C00000000001200BC
:06003200000000001200B6
:0A003800210E0D6E0D2EFED71200F2
:1000420025BE02D0839E01D0838E25BC02D0839C24
:1000520001D0838C25BA02D0839A01D0838A25B835
:1000620002D0839801D0838816B002D0848401D054
:1000720084948482DDDF849225B602D0839E01D0EF
:10008200838E25B402D0839C01D0838C25B202D00A
:10009200839A01D0838A25B002D0839801D08388C5
:1000A20016B002D0848401D084948482C1DF849209
:0C00B20016A002D0B2DF01D0BEDF1200A9
:1000BE00086A096A100E0C6E0134083609360450AF
:1000CE00085E0550D8A0053C095ED8B007D0045094
:1000DE0008260550D8B0053C0926D89000360136C2
:0600EE000C2EEAD71200FF
:0C00F400169024C025F0A3DF1680120037
:0C0100000E0E0D6E0D2EFED7000012003A
:10010C00C26A151C006E0050C116070EC012C08EBC
:10011C001DC000F000360090003600900050C21256
:10012C00C280E8DFC282C2A201D0FDD7C4CF01F0E9
:0E013C00006AC3500012000E0112C2901200A1
:10014A00216A050E215C0AE221501F24E16E000E8D
:10015A002020E26E200EE66E212AF3D721501F24BA
:10016A00E16E000E2020E26EE66A210621501F246D
:10017A00226E000E2020236E0A0E046E000E056EFB
:10018A001DC000F01EC001F095DF08C000F009C0D4
:10019A0001F0300E002622C0E1FF23C0E2FF00C0BA
:1001AA00E6FF0A0E046E000E056E1DC000F01EC0AA
:1001BA0001F080DF00C01DF001C01EF0000E011822
:1001CA0002E1000E001801E102D02106CFD7120089
:1001DA000900F5CFE6FF0006FBE10106F9E112008E
:1001EA000FD0800E1D6E19D0C00E1D6E16D0940E43
:1001FA001D6E13D0D40E1D6E10D0800E1D6E0DD044
:10020A001D50010AEEE01D50020AEEE01D50030ADD
:10021A00EEE01D50040AEEE0F0D71E04006E1D50F9
:10022A00002600C01DF000C025F006DF1690216AE6
:10023A0021501F24E96E000E2020EA6EEE520BE0D8
:10024A0021501F24E96E000E2020EA6EEECF24F022
:0A025A004CDF212AEDD716801200B8
:1002640052EC01F0DF0E946EFC0EC16EFF0E826E36
:10027400020E1D6E49DF00C01DF001C01EF0170EF6
:100284001F6E000E206E5FDF010E1D6E010E1E6ECE
:0E029400170E1F6E000E206EA6DFE8D7FFD7F4
:1002A40010EE15F0010E006E010E016EA20EF66E38
:0E02B400020EF76E000EF86EEDEC00F0120078
:0102A200302B
:020000040030CA
:0E000000000C1F1EFF8381FF0FC00FE00F409A
:00000001FF
