:100000000EEF00F00000000000EF00F00000000024
:0A0010000000000000000000F3D71C
:10001C00800E156E000E166E956A016A026A800ECD
:10002C000218006E800E005C02E1080E015C18E202
:10003C0015C083FF060E0B6E130E0C6EAD0E0D6EFF
:10004C000D2EFED70C2EFCD70B2EFAD7000000007D
:10005C0016321532169E16BC168E014A022ADFD7AE
:0C006C00800E156E000E166ED8D7FFD760
:020000040030CA
:0E000000000C1F1EFF8381FF0FC00FE00F409A
:00000001FF
