:1000000050EF00F00000000000EF00F000000000E2
:0A0010000000000000000000F3D71C
:10001C00020E0C6E490E0D6E0D2EFED70C2EFCD75B
:06002C00000000001200BC
:100032001D6A19C001F0010E006E015004E0003685
:100042000090FF0FFBD700C01CF017C0E9FF18C0DB
:10005200EAFF0050EE14016E0152010ED8A4000E08
:10006200006E1B50001A18E01A50000804E2D5DF97
:10007200D4DF1A06F9D717C0E9FF18C0EAFF1C50EF
:10008200EE14016E0152010ED8A4000E006E1B5038
:0E009200001A02E0FF0E1D6E1DC000F01200ED
:1000A000156A166A956A926A200E936E3C0E806EEF
:1000B000810E176E0F0E186E050E196E010E1A6E58
:1000C0001B6AB7DF0050FF0A31E1810E176E0F0E79
:1000D000186E050E196E010E1A6E1B6AAADF00500B
:1000E000FF0A01E1F2D7154A162A010E155C006ECF
:1000F000000E1658016E300E0024F66E010E01201F
:10010000F76E000EF86E000E01BEFF0EF822090019
:10011000F5CF83FF030E0B6E080E0C6E770E0D6E7F
:100120000D2EFED70C2EFCD70B2EFAD7C1D7FFD73A
:09013000065B4F666D7D077F6FD1
:020000040030CA
:0E000000000C1F1EFF8381FF0FC00FE00F409A
:00000001FF
