:1000000023EF03F00000000000EF00F0000000000C
:0A0010000000000000000000F3D71C
:10001C000F0E0C6E470E0D6E0D2EFED70C2EFCD750
:06002C00000000001200BC
:06003200000000001200B6
:0A003800210E0D6E0D2EFED71200F2
:0E004200026A016A006A086A036A000E120070
:100050000B840BAE33EF00F0010E036E026A016AEF
:0A006000006A0A360232FF0E120099
:08006A000AAE029E000E120016
:1000720025BE02D0839E01D0838E25BC02D0839CF4
:1000820001D0838C25BA02D0839A01D0838A25B805
:1000920002D0839801D0838816B002D0848401D024
:1000A20084948482C5DF849225B602D0839E01D0D7
:1000B200838E25B402D0839C01D0838C25B202D0DA
:1000C200839A01D0838A25B002D0839801D0838895
:1000D20016B002D0848401D084948482A9DF8492F1
:0C00E20016A002D09ADF01D0A6DF1200A9
:1000EE000B800BAE83EF00F0026A0AAEFF0E026EBB
:0C00FE00016E006E0A360232FF0E120086
:10010A000C6A0E6A0250D8A49EEF00F001C002F0F9
:10011A0000C001F0006A0E860250D8A49EEF00F0DB
:10012A0001C002F0016A0E960E880250D8B4B0EFF0
:10013A0000F00E50035ED8A4D8A0B5EF00F0D89016
:10014A0002BEBAEF00F0003601360236032EA5EFE2
:10015A0000F0B5EF00F0010E0C6E6EDFBDEF00F09F
:10016A00020E0C6E70DFBDEF00F0040E0C6E78DF2D
:02017A00120071
:10017C00086A096A100E0C6E0134083609360450F0
:10018C00085E0550D8A0053C095ED8B007D00450D5
:10019C0008260550D8B0053C0926D8900036013603
:0601AC000C2EEAD7120040
:0C01B200169024C025F05CDF16801200BF
:1001BE000B820BAEE9EF00F003680268016800687D
:0801CE000A360232FF0E120096
:0C01D6000E0E0D6E0D2EFED70000120064
:0801E2000B6A0B86FF0E1200F0
:1001EA000900F5CFE6FF0006FBE10106F9E112007E
:1001FA000050086E0150006E016A026A036A0B6AB7
:10020A000C6A960E036E0A6A00C001F008C000F07C
:08021A00086A026A75DF120098
:10022200C26A151C006E0050C116070EC012C08EA5
:100232001DC000F000360090003600900050C2123F
:10024200C280C8DFC282C2A201D0FDD7C4CF01F0F2
:0E025200006AC3500012000E0112C29012008A
:10026000969296949598959A959C959E849284944E
:10027000839E839C839A8398D1DED0DECFDE838AEF
:1002800083888482D6DE8492C9DE8482D2DE849220
:10029000C5DE8482CEDE8492C1DE83988482C9DE8C
:1002A0008492BCDE8482C5DE8492839A838E8482AB
:1002B000C0DE8492B3DE839E83888482BADE849219
:1002C00083988482B6DE8492A9DE8482B2DE849230
:1002D00083888482AEDE8492A1DE83988482A9DE44
:1002E0008492838E838C838A83888482A2DE849224
:0602F00095DE16801200ED
:1002F600216A050E215C0AE221501F24E16E000EE0
:100306002020E26E200EE66E212AF3D721501F240C
:10031600E16E000E2020E26EE66A210621501F24BF
:10032600226E000E2020236E0A0E046E000E056E4D
:100336001DC000F01EC001F01EDF08C000F009C09D
:1003460001F0300E002622C0E1FF23C0E2FF00C00C
:10035600E6FF0A0E046E000E056E1DC000F01EC0FC
:1003660001F009DF00C01DF001C01EF0000E0118EB
:1003760002E1000E001801E102D02106CFD71200DB
:100386000450000A12E10550000A0FE10650000A67
:100396000CE10750000A09E1FF0E006EFF0E016E28
:1003A6007F0E026EFF0E036EA4D0086A096A07501C
:1003B600D8B46EEF02F00350D8B472EF02F00250D8
:1003C60006180A6E028E068E0E6A02C008F001C07A
:1003D6000CF000C00DF004500D5E0550D8A0053C91
:1003E6000C5E0650D8A0063C085E086A0C6A0D6AC8
:1003F600D8A005EF02F0D89002320132003208325E
:10040600010E0E6E0750035ED8A012EF02F07E0EAC
:100416000E240326D8B076EF02F018EF02F07E0E17
:100426000E240326D8A07AEF02F0180E0B6E0D36B6
:100436000C3608360036013602360E360450005E9B
:100446000550D8A0053C015E0650D8A0063C025EC9
:1004560006340E120EA033EF02F00D803EEF02F0CE
:10046600045000260550D8B0053C01260650D8B0E9
:10047600062802260D900B2E1AEF02F064EF02F00A
:10048600D8900036013602360E360450005E05500E
:10049600D8A0053C015E0650D8A0063C025E063494
:1004A6000E10010B0D26D8B00C2AD8B4082AD8A4F1
:1004B60064EF02F008320C320D32032AD8B476EF1C
:1004C60002F00AAE089E0850026E0C50016E0D50E6
:1004D600006E7CEF02F0010E81DE7CEF02F0020E70
:1004E600ADDD7CEF02F0040E67DE7CEF02F0080E55
:0404F600ACDD120067
:1004FA000B6A0350D8B4C3EF02F002500A6E028EA0
:10050A008E0E035E03AEC7EF02F0036C080E035CA7
:10051A00D8A0A2EF02F0036E013602C001F0026A0F
:10052A00080E035CD8A0A2EF02F0036E0136016A3E
:10053A000350D8A4D890ACEF02F00350D8B4ACEF73
:10054A0002F0D89002320132032EA6EF02F00BBC61
:10055A0001A0B9EF02F0D8A0B9EF02F0012AD8B48D
:10056A00022A02BED6EF02F00AAEDBEF02F0021E4A
:10057A00011E012AD8B4022ADBEF02F0026A016ADC
:10058A00DBEF02F00B800BAEDFEF02F0026A0AAE7D
:10059A00DFEF02F0FF0E026E016E0A360232DFEF63
:1005AA0002F0010E0C6E9EDDE1EF02F0000E0C6E01
:1005BA00E1EF02F0FF0E0C6E0150006E0250016E68
:0205CA0012001D
:1005CC000FD0800E1D6E19D0C00E1D6E16D0940E5D
:1005DC001D6E13D0D40E1D6E10D0800E1D6E0DD05E
:1005EC001D50010AEEE01D50020AEEE01D50030AF8
:1005FC00EEE01D50040AEEE0F0D71E04006E1D5014
:10060C00002600C01DF000C025F02DDD1690216ADB
:10061C0021501F24E96E000E2020EA6EEE520BE0F2
:10062C0021501F24E96E000E2020EA6EEECF24F03C
:0A063C00BADD212AEDD71680120066
:100646004AEC03F00E0EC16E08DE1D6AE7DDD2DD50
:10065600140E046EAE0E056E230E066E820E076E27
:100666008FDE48DF00C01DF001C01EF0170E1F6EA2
:10067600000E206E3DDE010E1D6E010E1E6E170E63
:0C0686001F6E000E206E9FDFE0D7FFD734
:1006940010EE15F0010E006E010E016E920EF66E54
:0E06A400060EF76E000EF86EF5EC00F0120078
:010692003037
:020000040030CA
:0E000000000C1F1EFF8381FF0FC00FE00F409A
:00000001FF
