:10000000BFEF01F00000000000EF00F00000000072
:0A0010000000000000000000F3D71C
:06001C00000000001200CC
:100022000F0E0C6E470E0D6E0D2EFED70C2EFCD74A
:06003200000000001200B6
:0A003800210E0D6E0D2EFED71200F2
:100042003DBE02D0839E01D0838E3DBC02D0839CF4
:1000520001D0838C3DBA02D0839A01D0838A3DB805
:1000620002D0839801D0838828B002D0848401D042
:1000720084948482D2DF84923DB602D0839E01D0E2
:10008200838E3DB402D0839C01D0838C3DB202D0DA
:10009200839A01D0838A3DB002D0839801D08388AD
:1000A20028B002D0848401D084948482B6DF849202
:0C00B20028A002D0B5DF01D0BEDF120094
:1000BE00086A096A100E0C6E0134083609360450AF
:1000CE00085E0550D8A0053C095ED8B007D0045094
:1000DE0008260550D8B0053C0926D89000360136C2
:0600EE000C2EEAD71200FF
:1000F400020E0C6E490E0D6E0D2EFED70C2EFCD783
:06010400000000001200E3
:0C010A0028903CC03DF098DF28801200D7
:0C0116000E0E0D6E0D2EFED70000120024
:100122003B6A37C001F0010E006E015004E0003658
:100132000090FF0FFBD700C03AF035C0E9FF36C090
:10014200EAFF0050EE14016E0152010ED8A4000E17
:10015200006E3950001A18E03850000804E2C9DF76
:10016200C8DF3806F9D735C0E9FF36C0EAFF3A5092
:10017200EE14016E0152010ED8A4000E006E395029
:0E018200001A02E0FF0E3B6E3BC000F01200C0
:100190000900F5CFE6FF0006FBE10106F9E11200D8
:1001A000969296949598959A959C959E849284940F
:1001B000839E839C839A839834DF33DF32DF838A84
:1001C000838884822BDF84922CDF848227DF8492D1
:1001D00028DF848223DF849224DF839884821EDFD9
:1001E00084921FDF84821ADF8492839A838E8482B2
:1001F00015DF849216DF839E838884820FDF8492CA
:10020000839884820BDF84920CDF848207DF8492E0
:100210008388848203DF849204DF83988482FEDEF5
:100220008492838E838C838A83888482F7DE84928F
:06023000F8DE2880120038
:100236000FD0800E356E19D0C00E356E16D0940EC6
:10024600356E13D0D40E356E10D0800E356E0DD0AF
:100256003550010AEEE03550020AEEE03550030A49
:10026600EEE03550040AEEE0F0D73604006E355065
:10027600002600C035F000C03DF0E0DE2890396A67
:1002860039503724E96E000E3820EA6EEE520BE044
:1002960039503724E96E000E3820EA6EEECF3CF076
:0A02A60031DF392AEDD7288012005D
:1002B000396A050E395C0AE239503724E16E000EC6
:1002C0003820E26E200EE66E392AF3D739503724F3
:1002D000E16E000E3820E26EE66A390639503724A6
:1002E0003A6E000E38203B6E0A0E046E000E056E4C
:1002F00035C000F036C001F0E2DE08C000F009C0F1
:1003000001F0300E00263AC0E1FF3BC0E2FF00C022
:10031000E6FF0A0E046E000E056E35C000F036C012
:1003200001F0CDDE00C035F001C036F0000E01183E
:1003300002E1000E001801E102D03906CFD7120009
:10034000C26A151C006E0050C116070EC012C08E86
:1003500035C000F000360090003600900050C21208
:10036000C280D9DEC282C2A201D0FDD7C4CF01F0C3
:0E037000006AC3500012000E0112C29012006B
:10037E0085EC02F0336A346A0C0EC16E070E936E72
:10038E0008DF010E3D6E56DE0C0E3D6E53DE810E05
:10039E00356E0F0E366E376A010E386E396ABADE5A
:1003AE000050FF0A2BE1000E341802E1000E331844
:1003BE0025E1356ABEDF00C029F001C02AF000C079
:1003CE0035F001C036F02D0E376E000E386E69DF37
:1003DE00010E356E010E366E220E376E000E386E21
:1003EE0023DF010E356E070E366E2D0E376E000EA4
:1003FE00386E1ADF010E336E000E346E810E356EBE
:10040E000F0E366E010E376E010E386E396A82DEB1
:10041E000050FF0A2AE1000E341802E1010E3318D3
:10042E0024E1010E356E85DF00C02BF001C02CF0EB
:10043E0000C035F001C036F02D0E376E000E386E4E
:10044E0030DF020E356E010E366E160E376E000E52
:10045E00386EEADE020E356E070E366E2D0E376ED4
:10046E00000E386EE1DE336A346A810E356E0F0E81
:10047E00366E020E376E010E386E396A4BDE005044
:10048E00FF0A30E1335034102DE12B502924356E04
:10049E002C502A20366E2D0E376E000E386E01DF70
:1004AE00020E356E010E366E1C0E376E000E386E55
:1004BE00BBDE020E356E070E366E2D0E376E000E3B
:1004CE00386EB2DE150E0B6E4B0E0C6EBE0E0D6E32
:1004DE000D2EFED70C2EFCD70B2EFAD70000010ED8
:0804EE003D6EA8DD54D7FFD7D5
:10050A0010EE15F0130E006E010E016EF60EF66E69
:0E051A00040EF76E000EF86EC8EC00F0120032
:0104F60030D5
:0604F700504F54323A00A0
:0604FD00534F4D413A008F
:06050300504F54313A0094
:020000040030CA
:0E000000000C1F1EFF8381FF0FC00FE00F409A
:00000001FF
